{
  "_format": "hh-sol-artifact-1",
  "contractName": "TaskManager",
  "sourceName": "contracts/TaskManager.sol",
  "abi": [
    {
      "inputs": [],
      "stateMutability": "nonpayable",
      "type": "constructor"
    },
    {
      "inputs": [
        {
          "internalType": "address",
          "name": "owner",
          "type": "address"
        }
      ],
      "name": "OwnableInvalidOwner",
      "type": "error"
    },
    {
      "inputs": [
        {
          "internalType": "address",
          "name": "account",
          "type": "address"
        }
      ],
      "name": "OwnableUnauthorizedAccount",
      "type": "error"
    },
    {
      "anonymous": false,
      "inputs": [
        {
          "indexed": true,
          "internalType": "address",
          "name": "previousOwner",
          "type": "address"
        },
        {
          "indexed": true,
          "internalType": "address",
          "name": "newOwner",
          "type": "address"
        }
      ],
      "name": "OwnershipTransferred",
      "type": "event"
    },
    {
      "anonymous": false,
      "inputs": [
        {
          "indexed": false,
          "internalType": "uint256",
          "name": "taskId",
          "type": "uint256"
        },
        {
          "indexed": false,
          "internalType": "bool",
          "name": "completed",
          "type": "bool"
        }
      ],
      "name": "TaskCompleted",
      "type": "event"
    },
    {
      "anonymous": false,
      "inputs": [
        {
          "indexed": false,
          "internalType": "uint256",
          "name": "taskId",
          "type": "uint256"
        },
        {
          "indexed": false,
          "internalType": "string",
          "name": "title",
          "type": "string"
        },
        {
          "indexed": false,
          "internalType": "string",
          "name": "description",
          "type": "string"
        },
        {
          "indexed": false,
          "internalType": "address",
          "name": "owner",
          "type": "address"
        }
      ],
      "name": "TaskCreated",
      "type": "event"
    },
    {
      "anonymous": false,
      "inputs": [
        {
          "indexed": false,
          "internalType": "uint256",
          "name": "taskId",
          "type": "uint256"
        }
      ],
      "name": "TaskDeleted",
      "type": "event"
    },
    {
      "anonymous": false,
      "inputs": [
        {
          "indexed": false,
          "internalType": "uint256",
          "name": "taskId",
          "type": "uint256"
        },
        {
          "indexed": false,
          "internalType": "string",
          "name": "title",
          "type": "string"
        },
        {
          "indexed": false,
          "internalType": "string",
          "name": "description",
          "type": "string"
        }
      ],
      "name": "TaskUpdated",
      "type": "event"
    },
    {
      "inputs": [
        {
          "internalType": "string",
          "name": "_title",
          "type": "string"
        },
        {
          "internalType": "string",
          "name": "_description",
          "type": "string"
        }
      ],
      "name": "createTask",
      "outputs": [],
      "stateMutability": "nonpayable",
      "type": "function"
    },
    {
      "inputs": [
        {
          "internalType": "uint256",
          "name": "_taskId",
          "type": "uint256"
        }
      ],
      "name": "deleteTask",
      "outputs": [],
      "stateMutability": "nonpayable",
      "type": "function"
    },
    {
      "inputs": [],
      "name": "getAllTasks",
      "outputs": [
        {
          "components": [
            {
              "internalType": "uint256",
              "name": "id",
              "type": "uint256"
            },
            {
              "internalType": "string",
              "name": "title",
              "type": "string"
            },
            {
              "internalType": "string",
              "name": "description",
              "type": "string"
            },
            {
              "internalType": "bool",
              "name": "completed",
              "type": "bool"
            },
            {
              "internalType": "address",
              "name": "owner",
              "type": "address"
            }
          ],
          "internalType": "struct TaskManager.Task[]",
          "name": "",
          "type": "tuple[]"
        }
      ],
      "stateMutability": "view",
      "type": "function"
    },
    {
      "inputs": [
        {
          "internalType": "uint256",
          "name": "_taskId",
          "type": "uint256"
        }
      ],
      "name": "getTask",
      "outputs": [
        {
          "components": [
            {
              "internalType": "uint256",
              "name": "id",
              "type": "uint256"
            },
            {
              "internalType": "string",
              "name": "title",
              "type": "string"
            },
            {
              "internalType": "string",
              "name": "description",
              "type": "string"
            },
            {
              "internalType": "bool",
              "name": "completed",
              "type": "bool"
            },
            {
              "internalType": "address",
              "name": "owner",
              "type": "address"
            }
          ],
          "internalType": "struct TaskManager.Task",
          "name": "",
          "type": "tuple"
        }
      ],
      "stateMutability": "view",
      "type": "function"
    },
    {
      "inputs": [
        {
          "internalType": "uint256",
          "name": "_taskId",
          "type": "uint256"
        }
      ],
      "name": "markTaskCompleted",
      "outputs": [],
      "stateMutability": "nonpayable",
      "type": "function"
    },
    {
      "inputs": [],
      "name": "owner",
      "outputs": [
        {
          "internalType": "address",
          "name": "",
          "type": "address"
        }
      ],
      "stateMutability": "view",
      "type": "function"
    },
    {
      "inputs": [],
      "name": "renounceOwnership",
      "outputs": [],
      "stateMutability": "nonpayable",
      "type": "function"
    },
    {
      "inputs": [
        {
          "internalType": "address",
          "name": "newOwner",
          "type": "address"
        }
      ],
      "name": "transferOwnership",
      "outputs": [],
      "stateMutability": "nonpayable",
      "type": "function"
    },
    {
      "inputs": [
        {
          "internalType": "uint256",
          "name": "_taskId",
          "type": "uint256"
        },
        {
          "internalType": "string",
          "name": "_title",
          "type": "string"
        },
        {
          "internalType": "string",
          "name": "_description",
          "type": "string"
        }
      ],
      "name": "updateTask",
      "outputs": [],
      "stateMutability": "nonpayable",
      "type": "function"
    }
  ],
  "bytecode": "0x60806040523480156200001157600080fd5b5033600073ffffffffffffffffffffffffffffffffffffffff168173ffffffffffffffffffffffffffffffffffffffff1603620000885760006040517f1e4fbdf70000000000000000000000000000000000000000000000000000000081526004016200007f9190620001a9565b60405180910390fd5b6200009981620000a060201b60201c565b50620001c6565b60008060009054906101000a900473ffffffffffffffffffffffffffffffffffffffff169050816000806101000a81548173ffffffffffffffffffffffffffffffffffffffff021916908373ffffffffffffffffffffffffffffffffffffffff1602179055508173ffffffffffffffffffffffffffffffffffffffff168173ffffffffffffffffffffffffffffffffffffffff167f8be0079c531659141344cd1fd0a4f28419497f9722a3daafe3b4186f6b6457e060405160405180910390a35050565b600073ffffffffffffffffffffffffffffffffffffffff82169050919050565b6000620001918262000164565b9050919050565b620001a38162000184565b82525050565b6000602082019050620001c0600083018462000198565b92915050565b61193d80620001d66000396000f3fe608060405234801561001057600080fd5b50600436106100925760003560e01c8063715018a611610066578063715018a61461011b578063779900b4146101255780638da5cb5b14610143578063c72ef41f14610161578063f2fde38b1461017d57610092565b80620b2bda146100975780631d65e77e146100b3578063292a4585146100e3578063560f3192146100ff575b600080fd5b6100b160048036038101906100ac9190610dbc565b610199565b005b6100cd60048036038101906100c89190610dbc565b6102b1565b6040516100da9190610f61565b60405180910390f35b6100fd60048036038101906100f891906110b8565b61047d565b005b61011960048036038101906101149190610dbc565b6105cf565b005b610123610728565b005b61012d61073c565b60405161013a919061126f565b60405180910390f35b61014b6109aa565b60405161015891906112a0565b60405180910390f35b61017b600480360381019061017691906112bb565b6109d3565b005b61019760048036038101906101929190611372565b610af5565b005b803373ffffffffffffffffffffffffffffffffffffffff166002600083815260200190815260200160002060030160019054906101000a900473ffffffffffffffffffffffffffffffffffffffff1673ffffffffffffffffffffffffffffffffffffffff161461023e576040517f08c379a0000000000000000000000000000000000000000000000000000000008152600401610235906113fc565b60405180910390fd5b600060026000848152602001908152602001600020905060018160030160006101000a81548160ff0219169083151502179055507fe21fa966ca5cd02748c0752352d18c48165e61cb55b4c29cccf924b5a95fcff18360016040516102a492919061143a565b60405180910390a1505050565b6102b9610cce565b600260008381526020019081526020016000206040518060a0016040529081600082015481526020016001820180546102f190611492565b80601f016020809104026020016040519081016040528092919081815260200182805461031d90611492565b801561036a5780601f1061033f5761010080835404028352916020019161036a565b820191906000526020600020905b81548152906001019060200180831161034d57829003601f168201915b5050505050815260200160028201805461038390611492565b80601f01602080910402602001604051908101604052809291908181526020018280546103af90611492565b80156103fc5780601f106103d1576101008083540402835291602001916103fc565b820191906000526020600020905b8154815290600101906020018083116103df57829003601f168201915b505050505081526020016003820160009054906101000a900460ff161515151581526020016003820160019054906101000a900473ffffffffffffffffffffffffffffffffffffffff1673ffffffffffffffffffffffffffffffffffffffff1673ffffffffffffffffffffffffffffffffffffffff16815250509050919050565b60016000815480929190610490906114f2565b91905055506040518060a0016040528060015481526020018381526020018281526020016000151581526020013373ffffffffffffffffffffffffffffffffffffffff1681525060026000600154815260200190815260200160002060008201518160000155602082015181600101908161050b91906116e6565b50604082015181600201908161052191906116e6565b5060608201518160030160006101000a81548160ff02191690831515021790555060808201518160030160016101000a81548173ffffffffffffffffffffffffffffffffffffffff021916908373ffffffffffffffffffffffffffffffffffffffff1602179055509050507fbbb94ca73f3965bddcd3928ad3b2e4a73f8f8d2f42813d01d5094d2dd7132af16001548383336040516105c394939291906117f1565b60405180910390a15050565b803373ffffffffffffffffffffffffffffffffffffffff166002600083815260200190815260200160002060030160019054906101000a900473ffffffffffffffffffffffffffffffffffffffff1673ffffffffffffffffffffffffffffffffffffffff1614610674576040517f08c379a000000000000000000000000000000000000000000000000000000000815260040161066b906113fc565b60405180910390fd5b600260008381526020019081526020016000206000808201600090556001820160006106a09190610d15565b6002820160006106b09190610d15565b6003820160006101000a81549060ff02191690556003820160016101000a81549073ffffffffffffffffffffffffffffffffffffffff021916905550507fd078b251d950cc55c44340be1db732337ef4939a76e1367ee271ad2cb19c46af8260405161071c9190611844565b60405180910390a15050565b610730610b7b565b61073a6000610c02565b565b6060600060015467ffffffffffffffff81111561075c5761075b610f8d565b5b60405190808252806020026020018201604052801561079557816020015b610782610cce565b81526020019060019003908161077a5790505b5090506000600190505b60015481116109a257600260008281526020019081526020016000206040518060a0016040529081600082015481526020016001820180546107e090611492565b80601f016020809104026020016040519081016040528092919081815260200182805461080c90611492565b80156108595780601f1061082e57610100808354040283529160200191610859565b820191906000526020600020905b81548152906001019060200180831161083c57829003601f168201915b5050505050815260200160028201805461087290611492565b80601f016020809104026020016040519081016040528092919081815260200182805461089e90611492565b80156108eb5780601f106108c0576101008083540402835291602001916108eb565b820191906000526020600020905b8154815290600101906020018083116108ce57829003601f168201915b505050505081526020016003820160009054906101000a900460ff161515151581526020016003820160019054906101000a900473ffffffffffffffffffffffffffffffffffffffff1673ffffffffffffffffffffffffffffffffffffffff1673ffffffffffffffffffffffffffffffffffffffff168152505082600183610973919061185f565b8151811061098457610983611893565b5b6020026020010181905250808061099a906114f2565b91505061079f565b508091505090565b60008060009054906101000a900473ffffffffffffffffffffffffffffffffffffffff16905090565b823373ffffffffffffffffffffffffffffffffffffffff166002600083815260200190815260200160002060030160019054906101000a900473ffffffffffffffffffffffffffffffffffffffff1673ffffffffffffffffffffffffffffffffffffffff1614610a78576040517f08c379a0000000000000000000000000000000000000000000000000000000008152600401610a6f906113fc565b60405180910390fd5b600060026000868152602001908152602001600020905083816001019081610aa091906116e6565b5082816002019081610ab291906116e6565b507fe4096bc6e8c2668091cd0c1de61ba8e24d613d9ec02be5b617b02b190868cbb0858585604051610ae6939291906118c2565b60405180910390a15050505050565b610afd610b7b565b600073ffffffffffffffffffffffffffffffffffffffff168173ffffffffffffffffffffffffffffffffffffffff1603610b6f5760006040517f1e4fbdf7000000000000000000000000000000000000000000000000000000008152600401610b6691906112a0565b60405180910390fd5b610b7881610c02565b50565b610b83610cc6565b73ffffffffffffffffffffffffffffffffffffffff16610ba16109aa565b73ffffffffffffffffffffffffffffffffffffffff1614610c0057610bc4610cc6565b6040517f118cdaa7000000000000000000000000000000000000000000000000000000008152600401610bf791906112a0565b60405180910390fd5b565b60008060009054906101000a900473ffffffffffffffffffffffffffffffffffffffff169050816000806101000a81548173ffffffffffffffffffffffffffffffffffffffff021916908373ffffffffffffffffffffffffffffffffffffffff1602179055508173ffffffffffffffffffffffffffffffffffffffff168173ffffffffffffffffffffffffffffffffffffffff167f8be0079c531659141344cd1fd0a4f28419497f9722a3daafe3b4186f6b6457e060405160405180910390a35050565b600033905090565b6040518060a00160405280600081526020016060815260200160608152602001600015158152602001600073ffffffffffffffffffffffffffffffffffffffff1681525090565b508054610d2190611492565b6000825580601f10610d335750610d52565b601f016020900490600052602060002090810190610d519190610d55565b5b50565b5b80821115610d6e576000816000905550600101610d56565b5090565b6000604051905090565b600080fd5b600080fd5b6000819050919050565b610d9981610d86565b8114610da457600080fd5b50565b600081359050610db681610d90565b92915050565b600060208284031215610dd257610dd1610d7c565b5b6000610de084828501610da7565b91505092915050565b610df281610d86565b82525050565b600081519050919050565b600082825260208201905092915050565b60005b83811015610e32578082015181840152602081019050610e17565b60008484015250505050565b6000601f19601f8301169050919050565b6000610e5a82610df8565b610e648185610e03565b9350610e74818560208601610e14565b610e7d81610e3e565b840191505092915050565b60008115159050919050565b610e9d81610e88565b82525050565b600073ffffffffffffffffffffffffffffffffffffffff82169050919050565b6000610ece82610ea3565b9050919050565b610ede81610ec3565b82525050565b600060a083016000830151610efc6000860182610de9565b5060208301518482036020860152610f148282610e4f565b91505060408301518482036040860152610f2e8282610e4f565b9150506060830151610f436060860182610e94565b506080830151610f566080860182610ed5565b508091505092915050565b60006020820190508181036000830152610f7b8184610ee4565b905092915050565b600080fd5b600080fd5b7f4e487b7100000000000000000000000000000000000000000000000000000000600052604160045260246000fd5b610fc582610e3e565b810181811067ffffffffffffffff82111715610fe457610fe3610f8d565b5b80604052505050565b6000610ff7610d72565b90506110038282610fbc565b919050565b600067ffffffffffffffff82111561102357611022610f8d565b5b61102c82610e3e565b9050602081019050919050565b82818337600083830152505050565b600061105b61105684611008565b610fed565b90508281526020810184848401111561107757611076610f88565b5b611082848285611039565b509392505050565b600082601f83011261109f5761109e610f83565b5b81356110af848260208601611048565b91505092915050565b600080604083850312156110cf576110ce610d7c565b5b600083013567ffffffffffffffff8111156110ed576110ec610d81565b5b6110f98582860161108a565b925050602083013567ffffffffffffffff81111561111a57611119610d81565b5b6111268582860161108a565b9150509250929050565b600081519050919050565b600082825260208201905092915050565b6000819050602082019050919050565b600060a0830160008301516111746000860182610de9565b506020830151848203602086015261118c8282610e4f565b915050604083015184820360408601526111a68282610e4f565b91505060608301516111bb6060860182610e94565b5060808301516111ce6080860182610ed5565b508091505092915050565b60006111e5838361115c565b905092915050565b6000602082019050919050565b600061120582611130565b61120f818561113b565b9350836020820285016112218561114c565b8060005b8581101561125d578484038952815161123e85826111d9565b9450611249836111ed565b925060208a01995050600181019050611225565b50829750879550505050505092915050565b6000602082019050818103600083015261128981846111fa565b905092915050565b61129a81610ec3565b82525050565b60006020820190506112b56000830184611291565b92915050565b6000806000606084860312156112d4576112d3610d7c565b5b60006112e286828701610da7565b935050602084013567ffffffffffffffff81111561130357611302610d81565b5b61130f8682870161108a565b925050604084013567ffffffffffffffff8111156113305761132f610d81565b5b61133c8682870161108a565b9150509250925092565b61134f81610ec3565b811461135a57600080fd5b50565b60008135905061136c81611346565b92915050565b60006020828403121561138857611387610d7c565b5b60006113968482850161135d565b91505092915050565b600082825260208201905092915050565b7f4e6f7420746865207461736b206f776e65720000000000000000000000000000600082015250565b60006113e660128361139f565b91506113f1826113b0565b602082019050919050565b60006020820190508181036000830152611415816113d9565b9050919050565b61142581610d86565b82525050565b61143481610e88565b82525050565b600060408201905061144f600083018561141c565b61145c602083018461142b565b9392505050565b7f4e487b7100000000000000000000000000000000000000000000000000000000600052602260045260246000fd5b600060028204905060018216806114aa57607f821691505b6020821081036114bd576114bc611463565b5b50919050565b7f4e487b7100000000000000000000000000000000000000000000000000000000600052601160045260246000fd5b60006114fd82610d86565b91507fffffffffffffffffffffffffffffffffffffffffffffffffffffffffffffffff820361152f5761152e6114c3565b5b600182019050919050565b60008190508160005260206000209050919050565b60006020601f8301049050919050565b600082821b905092915050565b60006008830261159c7fffffffffffffffffffffffffffffffffffffffffffffffffffffffffffffffff8261155f565b6115a6868361155f565b95508019841693508086168417925050509392505050565b6000819050919050565b60006115e36115de6115d984610d86565b6115be565b610d86565b9050919050565b6000819050919050565b6115fd836115c8565b611611611609826115ea565b84845461156c565b825550505050565b600090565b611626611619565b6116318184846115f4565b505050565b5b818110156116555761164a60008261161e565b600181019050611637565b5050565b601f82111561169a5761166b8161153a565b6116748461154f565b81016020851015611683578190505b61169761168f8561154f565b830182611636565b50505b505050565b600082821c905092915050565b60006116bd6000198460080261169f565b1980831691505092915050565b60006116d683836116ac565b9150826002028217905092915050565b6116ef82610df8565b67ffffffffffffffff81111561170857611707610f8d565b5b6117128254611492565b61171d828285611659565b600060209050601f831160018114611750576000841561173e578287015190505b61174885826116ca565b8655506117b0565b601f19841661175e8661153a565b60005b8281101561178657848901518255600182019150602085019450602081019050611761565b868310156117a3578489015161179f601f8916826116ac565b8355505b6001600288020188555050505b505050505050565b60006117c382610df8565b6117cd818561139f565b93506117dd818560208601610e14565b6117e681610e3e565b840191505092915050565b6000608082019050611806600083018761141c565b818103602083015261181881866117b8565b9050818103604083015261182c81856117b8565b905061183b6060830184611291565b95945050505050565b6000602082019050611859600083018461141c565b92915050565b600061186a82610d86565b915061187583610d86565b925082820390508181111561188d5761188c6114c3565b5b92915050565b7f4e487b7100000000000000000000000000000000000000000000000000000000600052603260045260246000fd5b60006060820190506118d7600083018661141c565b81810360208301526118e981856117b8565b905081810360408301526118fd81846117b8565b905094935050505056fea264697066735822122073f63fd4098e378a190e857c884223673d590716a780f4b2348505b037318d9764736f6c63430008140033",
  "linkReferences": {},
  "deployedLinkReferences": {}
}